:030000000218944F
:0C189400787FE4F6D8FD7581980218DB1F
:10075C00464F52206B3D3020544F2034205354458B
:10076C0050203220464F52206D3D3120544F2035C1
:10077C00204946206D3E33205448454E2042524578
:10078C00414B20454E444946205052494E54206B13
:10079C002C6D204E455854206D204E455854206BDE
:1007AC0000613D3120623D3220474F535542207647
:1007BC0020613D3320474F535542207620454E440F
:1007CC0020763A20494620613E62205448454E200E
:1007DC005052494E542022612220454C5345205002
:1007EC0052494E542022622220454E444946205202
:1007FC00455455524E00773A205052494E5420479A
:10080C0045545449434B28292050415553452039D0
:10081C0020474F544F2077004441544120393939F7
:10082C002C372052454144206D2C7620504F4B459F
:10083C00206D2C76205052494E54205045454B2863
:10084C006D2900494E50555420224E3F222C2061D8
:10085C00205052494E54206100696620313E3220AE
:10086C007468656E207072696E74203120656C73CB
:10087C006520696620313C32207468656E20707288
:10088C00696E7420323120656E64696620656E6411
:10089C006966007072696E7400696E7075740064BC
:1008AC00617461007265616400726573746F726566
:1008BC00006966007468656E00656C736500656E32
:1008CC0064696600666F7200746F00737465700003
:1008DC00627265616B006E65787400676F746F008F
:1008EC00676F7375620072657475726E00656E6405
:1008FC00002C003B00280029002B002D002A002F83
:10090C000025003C003C3D003E003E3D003D003CCF
:10091C003E00616E64006F72006E6F7400706175E2
:10092C007365006765747469636B007065656B0053
:10093C00706F6B65000D0A4241442D54000D0A4244
:10094C0041442D452040000D0A4241442D432000D6
:10095C000D0A000D0A4241442D5420006E423531DF
:10096C002076302E31623220284329203230323525
:10097C002062670A0D002300303A20003A200073F1
:10098C00703A002C20732F743A000A0D746B6E3A77
:10099C00002C20002320003E20000A0D00FF089FA1
:1009AC008CFF08A58DFF08AB8EFF08B08FFF08B534
:1009BC0090FF08BD96FF08C097FF08C598FF08CAAE
:1009CC0099FF08D0A0FF08D4A1FF08D7A2FF08DC2C
:1009DC00A3FF08E2A4FF08E7AAFF08ECABFF08F2AC
:1009EC00ACFF08F9ADFF08FDBBFF08FFBCFF090118
:1009FC00B9FF0903BAFF0905B4FF0907B5FF0909D7
:100A0C00B6FF090BB7FF090DB8FF090FBEFF09119F
:100A1C00BFFF0914C0FF0916C1FF0919C2FF091B4A
:100A2C00C3FF091EC8FF0922C9FF0925CAFF0929EE
:100A3C00CBFF092FCCFF0937CDFF093CCE000001BD
:100A4C000100010000000100010100000001010093
:050A5C00000001000094
:101F4A000C5B075C07AD08020824084F0865027796
:021F5A00000085
:1014CC00D3E5339535E5346480F8E53264809822B1
:1014DC00AB2AAA2BA92C852E82852D83120EA7F55B
:1014EC003322E5762522F582E5753521F58322A890
:1014FC0008A60608A60722C3E52E9530E52F6480C2
:10150C00F8E52D64809822EF25E0FFEE33FE745C45
:10151C002FF58274033EF583227B007A0079382202
:10152C0033FE74002FF58274003EF58322AB49AA7A
:10153C004AA94BAF4EEF3395E08F82F583120EA77D
:10154C00FF22E5082404F8A60608A60722FFAE6BC6
:10155C00021F747BFF7A09795C22E54325E025E0C4
:10156C0024ACF582E43409F583E493228E2E8F2F7C
:10157C00752C00852F2D22E6FE08E6FFA808E6FC58
:10158C0008E6FD22A8080808E6FE08E6FF22C3E5E7
:10159C006C956EE56B956D227403256CF56CE435DA
:1015AC006BF56B22C3E536648094802274AE2522E1
:1015BC00F58274013521F583E0FF228E2C8F2DE509
:1015CC002D64BB452C223531FA7B01C3E99FF9EA26
:1015DC009EFA22E5762529F582E5753528F58322D4
:1015EC00AB45AA46A9478F8275830022AE50AF51F6
:1015FC007C007D0A020F1AAF4BEF3395E0FE22946C
:10160C0006E5216480948022247AF974033E22A892
:10161C0008E6FE08E622A8080808A60608A607227F
:10162C00E52EF5313395E0F53022AD33AF31AE30E8
:10163C00021F2EE53F2401FFE4353EFE22AB2AAA11
:10164C002BA92C22857682857583227B017A0179E0
:02165C00AE22BC
:03000B00021D4291
:101D4200C0E0C0D0E570456F6008E57015707002A4
:101D5200156F0572E57270020571D394FFE57194F7
:0E1D62007F4006757100757200D0D0D0E0325F
:101ED50053877F759850538EBF538EFE53890F439A
:0D1EE5008920758BFD758DFDC2ABD28E225C
:101F3700538E7F5389F0758A66758CFCC28DD28C5F
:031F4700D2A922FA
:061B56008B498A4A894B0D
:101B5C00E4F54CF54DF54E754F01120E8EB42D0576
:101B6C00754FFF054E121539121FB350211215393E
:101B7C00121E19EFFB7A00AE4CAF4D7C007D0A12A1
:101B8C000F08EF2BF54DEA3EF54C054E80D7AF4FC5
:0C1B9C00EF3395E0FEAC4CAD4D020F089D
:061EF2007B017A0179AECC
:101EF800E4FFFE120E8E600E740129F9E43AFA0F1F
:061F0800BF00010E80ED98
:011F0E0022B0
:060FD7008B458A468947A4
:100FDD00E4FFAB48AA49A94A8F82758300120EA778
:100FED00FE60091215EC120EE60F80E61215ECEEFE
:030FFD00020EE6FB
:061A51008B448A45894622
:101A5700121EF88F4BAB47AA48A949121EF8E54B4F
:101A67006F60037F0122E4F54AE54AC3954B502393
:101A7700AB47AA48A949121A9DC007AB44AA45A972
:101A870046121A9DAE07D007EE6F60037F0122054D
:051A97004A80D67F002B
:0F1A9C0022854A82758300120EA7FF121F822235
:101EB2008B588A59895AAB58AA59A95A120E8EFFC1
:101EC2006010121DF27401255AF55AE43559F5597C
:031ED20080E42287
:041B02008E508F5121
:101B0600E4F557C3E550648094805010C3E49551C2
:101B1600F551E49550F5507F2D121DF2E4FB121598
:101B2600F8ED2430FFC374049B2452F8A60712155F
:101B3600F88E508F51E551455060040BBB05DFAF61
:101B4600037B00C374569FF974009400FA021EB218
:0E1FC2008F4D7F65121DF2AF4D7E00021B0297
:061CCB008B408A418942B2
:101CD100E4F543E54325E025E024A9F582E4340950
:101CE100F583120F508B478A488949AB40AA41A915
:101CF10042121A51EF7005121566FF221215666421
:091D0100CE6004054380CC7FFF95
:011D0A0022B6
:041F7000AF6CAE6B39
:0E1F7400EF25E0FFEE12152CE0FEA3E0FF22A9
:101D9E008E498F4A8C4B8D4CD3E54A94D7E54964D6
:101DAE0080948040057FB4121FC2E54A25E0FFE50E
:0C1DBE004912152CE54BF0A3E54CF02277
:101F0F00AD07AC06AF6CAE6B121D9E056CE56C7029
:041F1F0002056B222A
:0B1F2300AC06AD07E52EFF3395E0FE95
:091F2E00121513ECF0A3EDF022F2
:091FDA00121513E0FEA3E0FF2242
:061C41008B408A4189423C
:101C4700E4F543AF43EF3395E0FEEF7803C333CEBC
:101C570033CED8F9121614754701F5488949AB40B8
:101C6700AA41A942121A51EF7008AF43EF3395E02A
:101C7700FE220543C3E5436480948F40C67EFF7F01
:011C8700FF5D
:011C88002239
:101BA8008B408A4189428C438D44C3E568940FE594
:101BB80067940040057FB5121FC2AE67E5687803D9
:101BC800C333CE33CED8F9121614FA7B01854048B8
:101BD80085414985424A120FD7AD44AC43AF68AE40
:0D1BE80067121F2E0568E568700205672270
:041BF5008E4C8F4D36
:101BF900121F708E4E8F4FE54F654D7004E54E658F
:101C09004C602C7BFF7A097941121EB2AF4FAE4E60
:101C1900121B027BFF7A09791B121EB2AF4DAE4C23
:101C2900121B027F40121DF2AF6CAE6B121B020534
:071C39006CE56C7002056B05
:011C40002281
:06100000E50824F9F508E3
:10100600F8E4F608F6E5082406F87601121F7012D1
:10101600154EE5082404F909E764B519477015E586
:10102600082406F876FF056CE56C7002056B121550
:101036005912154EE5082404F808E6FFA808080822
:10104600760008A607056CE56C7002056B12159014
:10105600EE60022150EF120F5C1084821094831010
:101066007BB910A7C810B6C910CBCA1129CC10DE9F
:10107600CD00001150121920A808A60601D9121F8A
:10108600701214FB056CE56C7002056B2160E508B7
:101096002404F9E7FF3395E0FE121FDA1214FB2150
:1010A60060121178E6FC08E6FDEE5CFEEF5D800D51
:1010B600121178E6FC08E6FDEE4CFEEF4DA808A6F8
:1010C6000608F62147121196121920EFF4FFEEF4E6
:1010D600A808F608A607806912119612192012149C
:1010E600FB12161BFFC3EE6480948F4009A808A666
:1010F6007308A674802BC3EE6480948C4010EF2492
:1011060080FF121335A808760008A607801312166A
:101116001B2578F582E5773EF583E0A8087600087A
:10112600F6801E7FB97E00121BF5121F70EF64BA9F
:101136004E60071219208E718F72A808A67108A634
:10114600727FBA7E00121BF580107BFF7A097949FF
:10115600121EB2AF6CAE6B121B02E5082406F8E64F
:0B116600FF3395E0FE121588120F0801
:10117100E5082407F508227FB97E00121BF5121934
:1011810020A808A60608A6077FBB7E00121BF51241
:0D1191001920A808227FB97E00121BF5224C
:06173600E50824FAF508A5
:10173C00121000121622E1E0E5082404F8E6FE0877
:10174C00E6FF64B64E600EEF64B74E6008EF64B807
:10175C004E6002E1E8056CE56C7002056BEE70748E
:10176C00EF2449602214604424027068A808080819
:10177C00C000E6FC08E6FDC004C005121000D00550
:10178C00D004120F08801C1210001214FBA90809B7
:10179C00E7194770028023A8080808C000121583B7
:1017AC00120F1AD000A60608A607802812100012E5
:1017BC0014FBA90809E7194770077FD0121FC280D4
:1017CC0013A8080808C000121583120F1AD000A61F
:0F17DC000408A605121F7012154EE14412159055
:0717EB00E5082406F50822C1
:06192000E50824FCF508B7
:10192600121F701214FB121736121622805312164B
:101936001BFF64B44E6006EF64B54E704C056CE553
:101946006C7002056BEE7039EF244B601404703135
:10195600121736A808080808EF26F618EE36F6809D
:1019660020A8080808C000E6FE08E6FFC006C00773
:10197600121736C3D0E09FFFD0E09ED000F608A62F
:0C19860007121F701214FB80A5121590B0
:07199200E5082404F508221A
:101999001219208E498F4A121F70EF2442F54B0508
:1019A9006CE56C7002056B121920D3E54A9FEE6451
:1019B90080F8E549648098400C12160374492FF5A4
:1019C90082740A8020E54AB50711E549B5060C126B
:1019D900160374512FF582740A800A12160374597A
:0B19E9002FF582740A3EF583E493FFA3
:0119F40022D0
:1019F500E4F56BF56CF56DF56EF569F56AF567F56A
:101A050068FDFCED25E0FFEC12152CE4F0A3F00DCC
:101A1500BD00010CED64D74C70E9E4FCFDAE04EDAE
:101A25007803C333CE33CED8F9247AF58274033ED6
:101A3500F583E4F0ED25E0FFEC121518E4F0A3F0D2
:0B1A45000DBD00010CED640F4C70D2D1
:011A50002273
:0E1FA4007E027FAE9001AEE4F0A3DFFCDEFA19
:011FB200220C
:101E4000E56A25E02479121552056AE56A700205F3
:101E500069C39410E5699400400B7FF0121FC275AE
:061E60006900756A0F2203
:101E6600E56A156A70021569C3E5699400500A7F30
:101E7600F1121FC2E4F569F56AE56A25E02479F8EE
:061E8600E6FE08E6FF2263
:101D7000EF64824E7008056CE56C7002056BEF64D1
:101D8000844E7019056CE56C7002056B121F70EFC4
:0E1D90004E600A056CE56C70F3056B80EF2267
:100CA800E4F53CF53DF56BF56C12159A4002A16927
:100CB800121F708E2A8F2BE52B6496452A70071217
:100CC8000E80053CA15FE52B6498452A7005120E3D
:100CD80075A15FE52B6499452A7052856B30856C48
:100CE80031121E668E2E8F2F121E668E2C8F2DE5CA
:100CF8002F452E601FE52D2401FFE4352CFEE52F3E
:100D08002402FDE4352EFC121D9EE52F2401FFE48C
:100D1800352E8008E52D2401FFE4352CFEE531242D
:100D280001FDE43530FC121D9E153C802AE52B643C
:100D3800A4452A6008E52B64A3452A7008056CE5DC
:100D48006C7002056BE52B64A0452A70031215A48C
:100D5800AF2BAE2A121D70056CE56C7002056B8115
:100D6800B1E53C60057FE3121FC2E4F56BF56C1238
:100D7800159A4002C16B121F708E2A8F2BE52B64C7
:100D8800A0452A7011120E801215A47FC27E00128F
:100D98001BF5053DC161E52B64A3452A7005120EBC
:100DA80075C161E52B64A4452A6002C142856B3494
:100DB800856C35121E668E368F37121E668E328F00
:100DC80033E5332402FFE43532FE121F748E387582
:100DD8003900E5352402FFE43534FE121F748E3ADB
:100DE800753B00E539653B7004E538653A60057F79
:100DF800E4121FC2AC38E53944A0FDAF33AE32125D
:100E08001D9EAC3AE53B44A4FDAF35AE34121D9EA1
:100E1800E5332401FFE43532FEAD35AC34121D9EB6
:100E2800E53745366010E5372401FFE43536FEAD79
:100E380035AC34121D9E153D801FE52B6496452A5E
:100E48006008E52B6498452A7008056CE56C70020B
:100E5800056BAF2BAE2A121D70056CE56C70020590
:0C0E68006BA177E53D60057FE1121FC221
:100E740022121E66AF6CAE6B121E4022AF6CAE6BBC
:0A0E8400121E40E4FFFE121E402281
:060A61008B2A8A2B892C70
:100A6700121EF88E2F8F30E4F56BF56CF52DF52EF1
:100A77001215034002818C1214DCFF121F5D500215
:100A87008182E5336422702A7F84FE121F0F052EB0
:100A9700E52E7002052D12150350121214DC642284
:100AA700600BAF33120C9370ED052D80E9E4FFFE68
:100AB7008163AF33121E8C40028125E4F531F53492
:100AC700F535F536F537121503506A1214DCFF12A7
:100AD7001E8C4006E533643A705BAF33121FB34098
:100AE700020534E531D394014029AF33121E198F23
:100AF70032E532B4FF020535E537C4F8540FC8684C
:100B0700FFE536C454F048FE7C00EF2532F537EC9C
:100B17003EF53674382531F8A6330531E531D394DF
:100B2700074008E4F53F7FB1121FC2052EE52E707E
:100B370002052D41CD74382531F8E4F6E5347019F6
:100B47007F82FE121F0F121525121B56121F0FE56B
:100B57002E152E7002152D8182E5357025E538B4E6
:100B67003020AF39121F82BF58187F827E00121FB4
:100B77000FAF37AE36121F0FE52E152E7002152D4B
:100B87008182121525121CCB8F32E532F460277E45
:100B970000121F0FE53264A06018E53264A46012EA
:100BA700E53264A3600CE53264966006E53264982A
:100BB7007062E4FF805A74372531F8E6643A702989
:100BC700F6FB7A007938121C418F32E532B4FF0CFC
:100BD700121525AD6CAC6B121BA88038AF327E00A6
:100BE700AD6CAC6B121F2E802B121525121C418F7A
:100BF70032E532B4FF11121525E4FDFC121BA812D1
:100C07001525121C418F32E532FEE42483FFE43EB2
:100C1700FE121F0FE52E152E7061152D805D853391
:100C270038AB2AE52C252EF9E52B352DFA90000156
:100C3700120EA7F539E4F53A120C9D600F1215252F
:100C4700121CCB120C937033052D802FE4F539124B
:100C57000C9D600D121525121CCB7E00121F0F80F4
:100C67001A7BFF7A097953121EB2AF33121DF27F36
:100C770040121DF2AF2EAE2D121B02052EE52E706F
:0B0C870002052D4177856B6D856C6EBA
:100C9200227E00121F0F052EE52E22FB7A007938E4
:060CA200121CCBEFF4224E
:101C89007D01121F70EF64B54E700A7DFF056CE58A
:101C99006C7002056B121F70056CE56C7002056BA8
:101CA900EF64827014121F70ED3395E0FC120F0877
:101CB900056CE56C700B056B227FB0121FC2E4FE48
:011CC900FF1B
:011CCA0022F7
:101DCA00056CE56C7002056B121F70EF4E60101205
:101DDA001F70121DF2056CE56C70ED056B80E9054C
:081DEA006CE56C7002056B2230
:10000E00E4F56BF56CE599B41B04C29841311215F9
:10001E009A40024131121F70121578E52C60026170
:10002E00EFE52D120F5C006E8302358C02878D0278
:10003E00EE8E03198F03759001B79601F09801FDAE
:10004E00990080A001A1A30132A40207AA0207AB66
:10005E000228AC0231AD0385CB039ECE000003EF28
:10006E00056CE56C7002056B7FC212041B121F2318
:10007E000113056CE56C7002056B1215598E3C8FE1
:10008E003D056CE56C7002056B856B3EF53F2402F9
:10009E001215A812162C1219208E328F33AC321272
:1000AE0016367FA112041B8E348F357536007537C8
:1000BE0001121F70EF64A24E700F056CE56C70029A
:1000CE00056B1219208E368F37E53D2401FFE4357E
:1000DE003CFEAD6CAC6B121D9EE53D2402FFE4357B
:1000EE003CFEAD3FAC3E121D9EAD37AC36AF3FAEC3
:1000FE003E121D9E12163FAD35AC34121D9E1215CA
:10010E00B040051214CC500F1215B040020113C3AB
:10011E001214CD40020113E53D2403F56CE4353C89
:10012E00F56B0113056CE56C7002056B1215598E9B
:10013E003C8F3DE56C2401FFE4356BFE121F748E7F
:10014E003E8F3F121F748E368F3712163F121F745A
:10015E008E348F3512162C056CE56C7002056BAF64
:10016E0031AE30121FDAE5372FF533E5363EF53274
:10017E00FC1216361215B040051214CC500B121587
:10018E00B05057C31214CD5051056CE56C7002057A
:10019E006B0113056CE56C7002056B121559EF249B
:1001AE0003F56CE43EF56B0113056CE56C7002050E
:1001BE006B1215598E3C8F3D056CE56C7002056B0C
:1001CE00121999EF3395E0F52A8F2B7F977E001247
:1001DE001BF5E52B452A60020113853C6B853D6CB2
:1001EE000113056CE56C7002056B121559802E0516
:1001FE006CE56C7002056B0113E52D64AB452C703C
:10020E000CE56C2402FFE4356BFE121E40056CE516
:10021E006C7002056B1219208003121E668E6B8F96
:10022E006C0113E4FEFF22056CE56C7002056B1287
:10023E001F708E2C8F2DE52D6484452C7005121D9C
:10024E00CA8006121920121B02121F708E2C8F2DBF
:10025E00E52D64BC452C700A056CE56C7002056BCF
:10026E0001131215CB600812155F121EB201130591
:10027E006CE56C70BA056B80B6056CE56C700205AA
:10028E006B121F708E2E8F2FEF6484700A121DCA90
:10029E007FBB7E00121BF57B007A0079407D077CC8
:1002AE00001217F2121F70121578056CE56C7002B1
:1002BE00056BE52D6483452C700DFB7A0079401299
:1002CE001B56121F2380057FB2121FC2121F7012FF
:1002DE0015C760020113056CE56C70A5056B418FA7
:1002EE00056CE56C7002056B856B3AF53B853A380B
:1002FE00853B39121C89121F70EF64BB4E600201E0
:10030E0013056CE56C70EC056B80E8056CE56C70A4
:10031E0002056B121F70121578056CE56C700205E4
:10032E006BE52D6483452C7025856B3C856C3D8576
:10033E00386B85396C121C89121F23E56C2401F56C
:10034E0039E4356BF538853C6B853D6C80057FB3A4
:10035E00121FC2121F701215C760020113056CE541
:10036E006C70B0056B80AC056CE56C7002056B852E
:10037E003A38853B390113056CE56C7002056B123A
:10038E0019208E6F8F70E570456F7002011380F625
:10039E00056CE56C7002056B1219208E3C8F3D7F4B
:1003AE00BB7E00121BF51219208F48C3E53C6480FA
:1003BE00948F40077573008F740113C3E53C6480FE
:1003CE00948C400CE53D2480FFAD4812119E011324
:1003DE00E578253DF582E577353CF583E548F00176
:1003EE00137BFF7A09795F121EB2AF2DAE2C121B52
:1003FE00027F40121DF2AF6CAE6B121B0212155F24
:0D040E00121EB2056CE56C7002056B011347
:09041B007E00121BF512192022CB
:041AAB008E378F38AB
:101AAF00E4F539F53AE53845377003FEFF22E4FDDA
:101ABF00FC121EF2C3ED9FEE6480F8EC6480985028
:101ACF002D74AE2DF58274013CF583E0B40A180530
:101ADF003AE53A70020539B5380DE539B53708EDF5
:101AEF002401FFE43CFE220DBD00010C80C3AE04B7
:021AFF00AF0531
:011B010022C1
:101D0B008E2A8F2B121D37FA7B01C003C002C00134
:101D1B00E52B2401FFE4352AFE121D37754801F52A
:101D2B0049894AD001D002D003020FD7121AAB74E3
:071D3B00AE2FF974013E22F6
:0A165E008B2A8A2B892CAD07AC06FD
:10166800121EF88E358F361216498F828E83740AB1
:10167800120EE6E92536F9EA3535FA900001E4124A
:101688000EE6121649121EF88E358F36AF05AE04D7
:10169800121AAB8E338F34121EF2C3EF9534F53025
:1016A800EE9533F52FE4F52DF52EC3E52E9536E5A9
:1016B800356480F8E52D6480985072121EF2EF248C
:1016C80001F532E43EF531E4FFFED3EF9530E52F26
:1016D8006480F8EE648098502374AD2532F9740163
:1016E8001215D2120E8EFD74AE2532F97401121540
:1016F800D2ED120ED40FBF00010E80CE121649850E
:101708002E82852D83120EA7FF74AE2534F58274C0
:10171800013533F583E582252EF582E583352DF5F0
:0D17280083EFF0052EE52E7081052DC1B276
:011735002291
:1004240074FFF525F52675FFDE75FFAD121ED5D2D6
:1004340099121F37D2AFFB7A097968A1207BFF7A22
:10044400097982121EB2121EF274AE2FF582740163
:100454003EAF82F5758F76FAA9077D507C0012179E
:10046400F2AA75A9767B01121EF88E288F29E52938
:10047400452860C9E4F521F522C3E5229529E5283C
:100484006480F8E52164809850121214EEE0FF6451
:100494000A6004EFB40D051214EEE4F0121650E0F5
:1004A400FF121F828F27E529640145286002C1B02D
:1004B400121650F0E527644370677BFF7A0979844C
:1004C400121EB2E4F523F524F521F522121EF2C31F
:1004D400E5229FEE6480F8E521648098503B121574
:1004E400B8640D602AEFB40A200524E524700205DF
:1004F4002312155F121EB2AF24AE23121B027BFF20
:100504007A097988121EB280061215B8121DF205F6
:1005140022E52270B7052180B312155F121EB28145
:1005240041E52764546002C106121657120A617B22
:10053400FF7A09798B121EB2AF817E00121B027BF7
:10054400FF7A09798F121EB2121EF2121B027F2F3C
:10055400121DF2AF6EAE6D121B027BFF7A09799603
:10056400121EB2E4F521F522C3E522956EE521952C
:100574006D5036AF22AE21121F748E238F241207C2
:10058400547F23121DF27E00AF24121B027F2F1210
:100594001DF2E523FF3395E0FE121B027A09799DD3
:1005A40012074A70C3052180BF12155F121EB2E400
:1005B400F521F522C3E5229568E52195674002817E
:1005C400411207547BFF7A0979A0121EB2AE21E5CD
:1005D400227803C333CE33CED8F9121614FA7B0132
:1005E400121EB27F3D121DF2AF22AE21121FDA128B
:1005F4001B0212155F121EB20522E52270B60521F8
:1006040080B2E527B4521E1219F5121657120A6168
:10061400120CA812000EE56A4569700281417FF24E
:10062400121FC28141E527B44E081219F5121FA406
:100634008141E527644C703EF521F522C3E5221281
:10064400160B40028141AF22AE21121B027BFF7ABE
:100654000979A3121EB2E52225E0245BF8E6FE0820
:10066400E6AA06F97BFF121EB27A0979A612074A96
:1006740070CA052180C6AF27121FB3502F121FA4C2
:10068400E52725E024FBF8E6FE08E6AA067548FF00
:100694008A49F54A121657120FD7121EF274AE2F5A
:1006A400F58274013EF583740AF08141E5276440C4
:1006B4006002E13CF521752201D3E5229401121672
:1006C4000D40271214EEE0FF64206003EF701B124C
:1006D40014EEE4F0E5762401FFE43575FAA9077B0E
:1006E40001121B568E258F26800E0522E5227002EC
:1006F4000521C312160B40C1121650E4F0C3E525C0
:100704006480948050028141E529B5220EE528B524
:100714002109AF26AE25121D0B8141E5762522FF66
:10072400E5753521CF2401CF3400FAA9077B01AF49
:1007340026AE2512165E81411215DF740AF01215D9
:06074400DFA3E4F0814197
:10074A007BFF121EB20522E52222AF22AE21121B26
:02075A00022279
:10119E00EFC394405009EF75F003A49011B5737529
:1011AE00F003A4901275738D80228D81228D822280
:1011BE008D83228D84228D85228D86228D87228D90
:1011CE0088228D89228D8A228D8B228D8C228D8D67
:1011DE00228D8E228D8F228D90228D91228D9222A4
:1011EE008D93228D94228D95228D96228D97228D10
:1011FE0098228D99228D9A228D9B228D9C228D9DD7
:10120E00228D9E228D9F228DA0228DA1228DA22223
:10121E008DA3228DA4228DA5228DA6228DA7228D8F
:10122E00A8228DA9228DAA228DAB228DAC228DAD46
:10123E00228DAE228DAF228DB0228DB1228DB222A3
:10124E008DB3228DB4228DB5228DB6228DB7228D0F
:10125E00B8228DB9228DBA228DBB228DBC228DBDB6
:10126E00228DBE228DBF228DC0228DC1228DC22223
:03127E008DC322FB
:101281008DC4228DC5228DC6228DC7228DC8228D87
:10129100C9228DCA228DCB228DCC228DCD228DCE1D
:1012A100228DCF228DD0228DD1228DD2228DD3229B
:1012B1008DD4228DD5228DD6228DD7228DD8228D07
:1012C100D9228DDA228DDB228DDC228DDD228DDE8D
:1012D100228DDF228DE0228DE1228DE2228DE3221B
:1012E1008DE4228DE5228DE6228DE7228DE8228D87
:1012F100E9228DEA228DEB228DEC228DED228DEEFD
:10130100228DEF228DF0228DF1228DF2228DF3229A
:101311008DF4228DF5228DF6228DF7228DF8228D06
:10132100F9228DFA228DFB228DFC228DFD228DFE6C
:04133100228DFF22E8
:10133500EFC394405009EF75F003A490134C7375F7
:10134500F003A490140C73AF8022AF8122AF8222E8
:10135500AF8322AF8422AF8522AF8622AF8722AF2B
:101365008822AF8922AF8A22AF8B22AF8C22AF8D24
:1013750022AF8E22AF8F22AF9022AF9122AF922261
:10138500AF9322AF9422AF9522AF9622AF9722AFAB
:101395009822AF9922AF9A22AF9B22AF9C22AF9D94
:1013A50022AF9E22AF9F22AFA022AFA122AFA222E1
:1013B500AFA322AFA422AFA522AFA622AFA722AF2B
:1013C500A822AFA922AFAA22AFAB22AFAC22AFAD04
:1013D50022AFAE22AFAF22AFB022AFB122AFB22261
:1013E500AFB322AFB422AFB522AFB622AFB722AFAB
:1013F500B822AFB922AFBA22AFBB22AFBC22AFBD74
:1014050022AFBE22AFBF22AFC022AFC122AFC222E0
:03141500AFC32240
:10141800AFC422AFC522AFC622AFC722AFC822AF22
:10142800C922AFCA22AFCB22AFCC22AFCD22AFCEDA
:1014380022AFCF22AFD022AFD122AFD222AFD32258
:10144800AFD422AFD522AFD622AFD722AFD822AFA2
:10145800D922AFDA22AFDB22AFDC22AFDD22AFDE4A
:1014680022AFDF22AFE022AFE122AFE222AFE322D8
:10147800AFE422AFE522AFE622AFE722AFE822AF22
:10148800E922AFEA22AFEB22AFEC22AFED22AFEEBA
:1014980022AFEF22AFF022AFF122AFF222AFF32258
:1014A800AFF422AFF522AFF622AFF722AFF822AFA2
:1014B800F922AFFA22AFFB22AFFC22AFFD22AFFE2A
:0414C80022AFFF222E
:1018A000020424E493A3F8E493A34003F68001F236
:1018B00008DFF48029E493A3F85407240CC8C33349
:1018C000C4540F4420C8834004F456800146F6DF18
:1018D000E4800B0102040810204080901F4AE47E3F
:1018E000019360BCA3FF543F30E509541FFEE4930D
:1018F000A360010ECF54C025E060A840B8E493A3D4
:10190000FAE493A3F8E493A3C8C582C8CAC583CAFE
:10191000F0A3C8C582C8CAC583CADFE9DEE780BEB6
:011F5C000084
:100E8E00BB010689828A83E0225002E722BBFE0262
:090E9E00E32289828A83E4932295
:100EA700BB010CE58229F582E5833AF583E0225000
:100EB70006E92582F8E622BBFE06E92582F8E2224A
:0D0EC700E58229F582E5833AF583E4932264
:100ED400BB010689828A83F0225002F722BBFE01FD
:020EE400F322F7
:100EE600F8BB010DE58229F582E5833AF583E8F042
:100EF600225006E92582C8F622BBFE05E92582C8EE
:020F0600F222D5
:100F0800EF8DF0A4A8F0CF8CF0A428CE8DF0A42EFD
:020F1800FE22B7
:100F1A00C2D5EC30E709B2D5E4C39DFDE49CFCEEF2
:100F2A0030E715B2D5E4C39FFFE49EFE120F82C3D9
:100F3A00E49DFDE49CFC8003120F8230D507C3E4D4
:060F4A009FFFE49EFE2261
:0C0F5000E493FB740193FA740293F922FD
:100F5C00D083D082F8E4937012740193700DA3A324
:100F6C0093F8740193F5828883E473740293686038
:060F7C00EFA3A3A380DF38
:101DF200EFB40A07740D121DFD740A309811A899E8
:101E0200B8130CC2983098FDA899C298B811F63050
:071E120099FDC299F5992228
:101E1900EF7E0024D0B40A00401B24F9B40A004024
:101E290011B41000400F24E0B40A004005B41000BA
:071E3900400374FFFEFF22CD
:0F1FB300EFC394304007EF943A50028001C322ED
:101E8C00EFC394414005EF945B4016EFC39461405F
:101E9C0005EF947B400BEFC394304008EF943A501D
:061EAC0003D38001C322F4
:101F5D00EFC394094005EF940E4003BF2003D380D7
:031F6D0001C3228B
:101F8200EFC39461400AEF947B5005EF24E0FF22F7
:011F9200222C
:1017F2008B498A4A894B8C4C8D4DE4F54EF54FE569
:101802004D24FFFFE54C34FFFEC3E54F9FEE64809D
:10181200F8E54E6480985069121F93AB49AA4AA911
:101822004B854F82854E83EF120EE6FFBF0A028080
:1018320050AB49AA4AA94B854F82854E83120EA707
:10184200B4081AE54F454E6008E54F154F70021572
:101852004E7F20121DF27F08121DF280A2AB49AA10
:101862004AA94B854F82854E83120EA7FF641160F1
:101872008EEF64136089054FE54F7083054E0218A1
:1018820001AB49AA4AA94B854F82854E83E4120EC9
:02189200E6224C
:100F8200BC000BBE0029EF8DF084FFADF022E4CC53
:100F9200F875F008EF2FFFEE33FEEC33FCEE9DEC1C
:100FA200984005FCEE9DFE0FD5F0E9E4CEFD22ED62
:100FB200F8F5F0EE8420D21CFEADF075F008EF2FAC
:100FC200FFED33FD4007985006D5F0F222C398FD9D
:050FD2000FD5F0EA223A
:101F930010000B121FD0BF0D027F0A021DF2AF0902
:011FA300221B
:0A1FD0003098FDAF99C2987E002200
:00000001FF
