:03000000021A3BA6
:0C1A3B00787FE4F6D8FD758174021A82F1
:100B1700464F52206B3D3020544F203420535445CC
:100B270050203220464F52206D3D3120544F203502
:100B3700204946206D3E33205448454E20474F54A8
:100B47004F204520454E444946205052494E542097
:100B57006B2C6D204E455854206D20453A204E454C
:100B67005854206B00474F535542207620454E443A
:100B770020763A205052494E542031205245545540
:100B8700524E00773A205052494E5420474554540C
:100B970049434B2829205041555345203920474F79
:100BA700544F20770044415441202D312052454174
:100BB7004420762058504F4B452068732C762050A0
:100BC70052494E5420585045454B286873290050C8
:100BD70052494E5420223F2220494E5055542061FD
:100BE700205052494E54206100696620313E322020
:100BF7007468656E207072696E74203120656C733D
:100C07006520696620313C32207468656E207072F9
:100C1700696E74203220656E64696620656E64694A
:100C270066007072696E7400696E70757400646135
:100C37007461007265616400726573746F72650038
:100C47006966007468656E00656C736500656E643F
:100C5700696600666F7200746F0073746570006E6A
:100C670065787400676F746F00676F7375620072E1
:100C7700657475726E00656E64002C003B00280079
:100C870029002B002D002A002F0025003D003C00E5
:100C97003C3D003E003E3D003D3D003C3E00616E58
:100CA70064006F72006E6F74007061757365006722
:100CB70065747469636B007365747469636B00733F
:100CC7007065656B0073706F6B6500787065656B39
:100CD7000078706F6B65000D0A543A000D0A453FA6
:100CE70040000D0A433F004853004845000D0A00E5
:100CF7000D0A543F006E4235312076302E33623173
:100D07002028432920323032352062670A0D00231C
:100D170000303A20003A2000733A00743A002C2041
:100D2700006E3A000A0D00FF0C298CFF0C2F8DFF77
:100D37000C358EFF0C3A8FFF0C3F90FF0C4796FF48
:100D47000C4A97FF0C4F98FF0C5499FF0C5AA0FFC1
:100D57000C5EA1FF0C61A2FF0C66A3FF0C6BAAFF40
:100D67000C70ABFF0C76ACFF0C7DADFF0C81BBFFAD
:100D77000C83BCFF0C85B9FF0C87BAFF0C89B4FF45
:100D87000C8BB5FF0C8DB6FF0C8FB7FF0C91B8FF1E
:100D97000C93BDFF0C95BEFF0C97BFFF0C9AC0FFCD
:100DA7000C9CC1FF0C9FC2FF0CA2C3FF0CA5C8FF80
:100DB7000CA9C9FF0CACCAFF0CB0CBFF0CB6CCFF1B
:100DC7000CBECDFF0CC6CEFF0CCCCFFF0CD2D0FF94
:100DD7000CD8D10000010100010000000100010151
:0B0DE7000000000101000000010000FE
:101F57000C570B170B6C0B8A0BAC0BD60BF00273E1
:021F6700000078
:100DF2007492C3956DFFE49400FE7C007D07021699
:100E02009AD3E52F9531E5306480F8E52E64809819
:100E120022EF3395E0FEC374919FFFE49EFE9000A3
:100E22000575F007EF1216E2EE75F007A42583F5BB
:100E32008322AB2CAA2DA92E853082852F831216F0
:100E420039F53522E56424FFFFE56334FFFE22E530
:100E5200722522F582E5713521F58322E52CFF33D7
:100E620095E0FEEF2564F564EE3563F56322FFAE8F
:100E720063021FBDC3E5309532E5316480F8E52F8A
:100E820064809822EF25E0FFEE33FE74002FF58296
:100E920074003EF5832274002FF974003EFA7B0140
:100EA20022E6FE08E6FFA808E6FC08E6FD22A808FE
:100EB200A60608A6072274002522F58274003521B1
:100EC200F583E022A8080808A60608A60722E4FF80
:100ED200FE121F1DE4F538F539227BFF7A0C79F4F6
:100EE20022AB45AA46A947AF4AEF3395E08F82F578
:100EF20083121639FF227E00121F1D7538008534B9
:100F02003922E54725E025E02431F582E4340DF568
:100F120083E4932274022564F564E43563F5632265
:100F220085656385666422C3E5649568E5639567B4
:100F320022C3E53264809480228E388F390564E5BD
:100F42006422FB7A007C007D0A12169AEF2B227B28
:100F5200007A00793C223533FA7B01C3E99FF9EA32
:100F62009EFA22E5722526F582E5713525F5832262
:100F7200AB49AA4AA94B8F8275830022AE4CAF4D72
:100F82007C007D0A0216ACA8080808E6FE08E6FF07
:100F9200E50822AF47EF3395E0FE228E2C8F2DEF2E
:100FA200F53C229406E5216480948022A808080872
:100FB200A900228E2C8F2DEFF53CE53C22E533244F
:100FC20001FFE43532FE22AB2CAA2DA92E22857216
:050FD2008285718322FD
:03000B00021DA62D
:101DA600C0E0C0D0E56A45696008E56A156A700258
:101DB6001569056CE56C7002056BD394FFE56B94B1
:0E1DC6007F4006756B00756C00D0D0D0E03207
:101E960053877F759850538EBF538EFE53890F43D9
:0D1EA6008920758BFD758DFDC2ABD28E229B
:101F3100538E7F5389F0758A66758CFCC28DD28C65
:031F4100D2A92200
:061C18008B458A46894756
:101C1E00E4F548F549F54A754B01121620B42D0529
:101C2E00754BFF054A120EE3121F8E5018120EE36B
:101C3E00121E26EFAE48AF49120F44F549EA3EF5A3
:101C4E0048054A80E0AF4BEF3395E0FEAC48AD4916
:031C5E0002169AD1
:061EB3007B017A007900BA
:101EB900E4FFFE121620600E740129F9E43AFA0FC4
:061EC900BF00010E80EDD8
:011ECF0022F0
:060FD7008B498A4A894B98
:100FDD00E4FFAB4CAA4DA94E8F82758300121639D2
:100FED00FE6009120F721216780F80E6120F72EE64
:030FFD0002167861
:061AC7008B488A49894AA0
:101ACD00121EB98F4FAB4BAA4CA94D121EB9E54F43
:101ADD006F60037F0122E4F54EE54EC3954F502311
:101AED00AB4BAA4CA94D121B13C007AB48AA49A971
:101AFD004A121B13AE07D007EE6F60037F0122055C
:051B0D004E80D67F00B0
:0F1B120022854E82758300121639FF121F7D2225
:101F060074002570F5827400356FF583EFF0057067
:071F1600E5707002056F2267
:101E73008B548A558956AB54AA55A956121620FF7E
:101E83006010121DFF74012556F556E43555F555BE
:031E930080E422C6
:041B78008E4C8F4DB3
:101B7C00E4F553C3E54C648094805010C3E4954D58
:101B8C00F54DE4954CF54C7F2D121DFFE4FB120F27
:101B9C007EED2430FFC374049B244EF8A607120F6D
:101BAC007E8E4C8F4DE54D454C60040BBB05DFAF75
:101BBC00037B00C374529FF974009400FA021E73E5
:0E1F9D008F497F65121DFFAF497E00021B7841
:061D33008B448A4589463D
:101D3900E4F547E54725E025E0242EF582E4340D56
:101D4900F5831216EE8B4B8A4C894DAB44AA45A9F3
:101D590046121AC7EF7005120F04FF22120F04640E
:091D6900D16004054780CC7FFF26
:011D7200224E
:041FB900AF64AE6300
:091FBD00120E86E0FEA3E0FF22F3
:051FAB00FFE43538FEE3
:091FB000120E86ECF0A3EDF02204
:101F1D00AD07AC06AF64AE63121FB00564E5647027
:041F2D000205632224
:0707F000AC06AD07E52CFF8C
:0907F700120E13ECF0A3EDF02248
:091FD000120E13E0FEA3E0FF2253
:061C61008B448A45894610
:101C6700E4F547AD47ED3395E0FCC3ED956D748022
:101C7700F86C98502BC374919DFFE49C120DFB7474
:101C8700002FF974003E754B01F54C894DAB44AA02
:101C970045A946121AC7EF7003AF4722054780C30D
:021CA7007FFFBD
:011CA9002218
:101CF0008C478D488B448A458946121EB9D3EF9490
:101D000004EE6480948040057FE0121F9D74911260
:101D10000DF4120E9885444C85454D85464E120FA4
:101D2000D7AD48AC47AF6D1207F7056DC3E56D94AD
:031D300001FF228E
:101F4400EF3395E0FEC374919FFFE49E120DFB12E4
:031F54000E9822C2
:041BCC008E488F4967
:101BD000121FB98E4A8F4BE54B65497004E54A6583
:101BE00048602C7BFF7A0C79DE121E73AF4BAE4A35
:101BF000121B787BFF7A0C79A2121E73AF49AE4894
:101C0000121B787F40121DFFAF64AE63121B780574
:071C100064E5647002056346
:011C170022AA
:0614C400E50824FAF5081A
:1014CA00F8E4F608F6E5082405F87601121FB912C1
:1014DA000EC6120FAE09E764B519477015E5082460
:1014EA0005F876FF0564E56470020563120E701252
:1014FA000EC6120FAE09E7FFE5082404F8EFF6FF5F
:10150A000564E56470020563EF1216FA153E82154A
:10151A004E831535B9155BC81568C91579CA15B64C
:10152A00CC1586CE1599D0000015D1121775A808CA
:10153A00A606A194121FB9120EB00564E5647002E2
:10154A000563A1E1120FAEE7FF121FD0120EB0A180
:10155A00E11215F9120EA8EE5CFEEF5D800B121572
:10156A00F9120EA8EE4CFEEF4DA808A60680391215
:10157A001615EFF4FFEEF4A808F6800E121615EF12
:10158A002480FF121197A808760008A607802F7FEB
:10159A00B97E00121BCC121775E5742FF582E5731C
:1015AA003EF583E0A808760008F680127FB97E002F
:1015BA00121BCCC2AFA808A66B08A66CD2AF7FBA22
:1015CA007E00121BCC80107BFF7A0C79E3121E730B
:1015DA00AF64AE63121B78E5082405F8E6FF33957D
:0815EA00E0FE120EA812169A91
:1015F200E5082406F508227FB97E00121BCC1217DB
:1016020075A808A60608A6077FBB7E00121BCC128F
:0E1612001775227FB97E00121BCC12177522AD
:0618D800E50824FAF50802
:1018DE001214C4120EC62182E5082404F8E6FE088E
:1018EE00E6FF64B64E600EEF64B74E6008EF64B864
:1018FE004E600221910564E56470020563EE70741A
:10190E00EF2449602214604424027068A808080875
:10191E00C000E6FC08E6FDC004C0051214C4D005E4
:10192E00D00412169A801C1214C4120EB0A9080903
:10193E00E7194770028023A8080808C000120EA3FA
:10194E001216ACD000A60608A60780281214C412E0
:10195E000EB0A90809E7194770077FF0121F9D8086
:10196E0013A8080808C000120EA31216ACD000A6C9
:10197E000408A605121FB9E5082404F8A60608A651
:03198E000701E668
:08199100120F892406F508225B
:06177500E50824FCF50864
:10177B00121FB9120EB01218D8120EC68056A80836
:10178B00E6FE08E6FF64B44E6006EF64B54E704C9F
:10179B000564E56470020563EE7039EF244B601449
:1017AB000470311218D8A808080808EF26F618EEAE
:1017BB0036F68020A8080808C000E6FE08E6FFC041
:1017CB0006C0071218D8C3D0E09FFFD0E09ED00010
:0C17DB00F608A607121FB9120EB080A27B
:0817E700120F892404F5082209
:100794001217758E458F46121FB9EF2442F547058F
:1007A40064E56470020563121775D3E5469FEE6431
:1007B40080F8E545648098400C120F9574DA2FF5A3
:1007C40082740D8020E546B50711E545B5060C1287
:1007D4000F9574E22FF582740D800A120F9574EA56
:0B07E4002FF582740D3EF583E493FFB7
:0107EF0022E7
:101CAA00EF6005E4900000F0121EB37C007D021282
:101CBA0016ACEF2403F566E43EF565AD66FCC3ECAD
:101CCA00648094825013ED25E0FFEC120E8BE4F051
:101CDA00A3F00DBD00010C80E5120F22E4F567F5B3
:051CEA0068F56EF56DC8
:011CEF0022D2
:101ED000E56E25E0240AF8A60608A607056EE56E5D
:0B1EE000D3940A40057FF1121F9D22E1
:101EEB00156EE56EC3940050057FF2121F9DE56ED3
:0B1EFB0025E0240AF8E6FE08E6FF22BE
:10132E00E4F53AF53B120F22120F29400261EB123F
:10133E001FB9120FB5B496151214BCE4FFFE121E9F
:10134E00D0053A0564E5647002056361E1E53CB4DD
:10135E009810121EEB1214BC0564E564700205634E
:10136E0061E1E53C6499704E856330856431121EEF
:10137E00EB8E2E8F2F121EEBAB07AA06E52F452EF6
:10138E00601DEB2401FFE43AFEE52F2402FDE43557
:10139E002EFC121FB0E52F2401FFE4352E8006EB44
:1013AE002401FFE43AFEE5312401FDE43530FC1260
:1013BE001FB0153A801DE53CB4A303120F16E53C91
:1013CE00B482080564E56470020563E53CB48403E9
:1013DE00120E5E0564E564700205636136E53A60DF
:1013EE00057FB3121F9D120F22120F29400281B2E8
:1013FE00121FB9120FB5B4A013AF64AE63121ED094
:10140E000564E56470020563053B81A8E53C64A3B1
:10141E007067856334856435121EEB8E328F3312FE
:10142E000FBF121FBD8E36753700E5352403FFE45E
:10143E003534FE121FBD8E38753900E537653970AB
:10144E0004E536653860057FB4121F9DAC36E5376E
:10145E0044A0FDAF33AE32121FB0AC38E53944A311
:10146E00FDAF35AE34121FB0120FBFAD35AC341216
:10147E001FB0120F16153B8021E53C6496600BE5FC
:10148E003C64986005E53CB482080564E56470022E
:10149E000563E53CB48403120E5E0564E5647002D8
:0D14AE00056361F7E53B60057FB2121F9DED
:0914BB0022AF64AE63121ED022C0
:060800008B2C8A2D892ECD
:10080600121EB98E318F32E4F538F539120F22F502
:100816002FF530120E76400241A5120E34FF121F3C
:100826006A5002419BE5356422706FF5337F84FE82
:10083600121F1DE56425E0F570E56333F56F05309D
:10084600E5307002052F120E765018120E3464220F
:100856006011AF35121F0605330530E53070E70528
:100866002F80E3E4FF121F060533E4F538F539E57A
:1008760033C313FFE53354012FF533120E46C0067A
:10088600C007E533FEE42484FDE43EFCD007D00631
:10089600121FB0E533120F18419BAF35121E4D40A3
:1008A600024126E4F533F536F537F53AF53B120EF7
:1008B60076506A120E34FF121E4D4006E535643A34
:1008C600705BAF35121F8E40020536E533D39401B7
:1008D6004029AF35121E268F34E534B4FF020537A2
:1008E600E53BC4F8540FC868FFE53AC454F048FE27
:1008F6007C00EF2534F53BEC3EF53A743C2533F8A5
:10090600A6350533E533D394074008E4F5437FE085
:10091600121F9D0530E5307002052F01B4743C2589
:1009260033F8E4F6E53670197F82FE121F1D120FAA
:1009360051121C18120ED3E53015307002152F41D6
:100946009BE5377025E53CB43020AF3D121F7DBFD7
:1009560058187F827E00121F1DAF3BAE3A120ED38F
:10096600E53015307002152F419B120F51121D33C1
:100976008F34E534F46023120EF8E534649660058E
:10098600E534B49803120ED0E53464A36002411C2A
:10099600FFFE121F1D120ED0411C743B2533F8E6D4
:1009A600643A701FF6FB120B00B4FF0C120F51AD28
:1009B60064AC63121CF0805EAD64AC63AF341207A6
:1009C600F780537B00120B00B4FF0B120F51E4FDAE
:1009D600FC121CF08F34E53964AA45386008E53905
:1009E60064AB4538701D120E46C006C007E5347F5D
:1009F60000FEEF2539FDE5383EFCD007D006121F74
:100A0600B08013E534FEE42483FFE43EFE121F1D8E
:100A1600753800753983E53015307002152F419B06
:100A260085353CAB2CE52E2530F9E52D352FFA9092
:100A36000001121639F53DE4F53E120AF2600D1278
:100A46000EF80530E530704D052F8049E4F53D126E
:100A56000AF26027E539648345387018E534B4BD79
:100A660013120E46121FBDAC067485FD120E4612F9
:100A76001FB08021AF34120EF8801A7BFF7A0C79F2
:100A8600E9121E73AF35121DFF7F40121DFFAF30F6
:100A9600AE2F121B780530E5307002052F0119853F
:100AA60063678564687A0C79EE120B0C600CE56856
:100AB60025E0FDE56733FC1207F77A0C79F1120B96
:100AC6000C600C120DF2AC06AD07AF341207F7122C
:100AD6000DF2AC06AD07E56825E0FFE56733FED30A
:0B0AE600EF9DEE9C40057FE1121F9D7C
:100AF10022FB7A00793C121D338F34E534F4227ADB
:100B010000793C121C618F34E534227BFF121C6199
:060B11008F34E534F422EC
:101DD400754501121FB9EF64B54E700B7545FF05CB
:101DE40064E564700205637F827E00121BCC121FBF
:0B1DF400B9AD45ED3395E0FC02169AF6
:10000E00120F22C298120F29400261C8E599641B93
:10001E00700261C8121FB9120F9DE53C1216FA004C
:10002E006A8501E68C02508D02A08E02D28F032CBF
:10003E009001769601AA9801B799007AA00115A3AE
:10004E0001D5AA01C1AB01DDAC03C8AD033CCB03A6
:10005E0087CD0355CF036CD10000039C0564E56486
:10006E00700205631217751207F080970564E56438
:10007E0070020563120E70120F3B700205631217A9
:10008E00758E2E8F2FE52CFFAD2FAC2E1207F77F1E
:10009E00A17E00121BCC1217758E308F3175320077
:1000AE00753301121FB9EF64A24E700F0564E5643B
:1000BE00700205631217758E328F33E5392401AD48
:1000CE0064AC63121FABE5392402AD33AC32121FA0
:1000DE00ABE5392403FFE43538FEAD31AC30121FE9
:1000EE00B0120F334005120E03500F120F334002A1
:1000FE000111C3120E0440020111E5392403F56407
:10010E00E43538F56301110564E564700205631288
:10011E000E70120F3B70020563120E708E328F330B
:10012E000564E56470020563120E708E308F31E542
:10013E002CFFAD07121FD0E5332FF52FE5323EF51C
:10014E002EAF05AD2FFC1207F7120F334005120E1E
:10015E0003500B120F33503CC3120E04503605647D
:10016E00E5647002056301110564E56470020563C0
:10017E00120E70120F3B70020563120794EF339547
:10018E00E0F53A8F3B7F977E00121BCCE53B453A5C
:10019E006002011185386385396401110564E564D7
:1001AE0070020563120E7080290564E56470020505
:1001BE00630111E5642401FFE43563FE121ED0E5F0
:1001CE002CFF121FD0800BE52CFF121FD0800312C4
:1001DE001EEB8E638F6401110564E5647002056386
:1001EE00121FB9EF648470210564E5647002056323
:1001FE0025E0FFE56333FE120E98121E73120E46B3
:10020E00121FBDEE120E608006121775121B7812A9
:10021E001FB98E2C8F2DE52D64BC452C700A0564FC
:10022E00E564700205630111E52D64BB452C600881
:10023E00120EDC121E7301110564E5647002056373
:10024E0021EE0564E564700205637B007A00793D5A
:10025E007D087C00121999121FB9120F9DE53CB44E
:10026E00830E7B007A00793D121C181207F0800570
:10027E007FB0121F9D0564E56470020563120E7057
:10028E00EF64BB4E600201110564E56470BC05634A
:10029E0080B80564E56470020563856336F53785BD
:1002AE006334F535121DD40564E5647002056312DE
:1002BE000E70EF64BB4E600201110564E56470E4DC
:1002CE00056380E00564E56470020563121FB912D0
:1002DE000F9D0564E56470020563E53CB4832585D6
:1002EE006338856439853463853564121DD41207ED
:1002FE00F0E5642402F535E43563F534853863851D
:10030E00396480057FB1121F9D121FB9EF64BB4E79
:10031E00600201110564E56470B2056380AE056488
:10032E00E564700205638536348537350111056441
:10033E00E564700205631217758E698F6AE56A456A
:10034E00697002011180F60564E56470020563129E
:10035E0003C9AD07E5392480FF12100001110564B1
:10036E00E564700205631203C9E5742539F582E56B
:10037E00733538F583EFF001110564E564700205FD
:10038E0063C2AF1217758E6B8F6CD2AF01117BFFEC
:10039E007A0C79F7121E73AF3C7E00121B787F40E9
:1003AE00121DFFAF64AE63121B78120EDC121E73A9
:0A03BE000564E56470020563011197
:1003C800221217758E388F397FBB7E00121BCC1214
:0303D80017752274
:041B21008E398F3A30
:101B2500E4F53BF53CE53A45397003FEFF22E4FD5B
:101B3500FC121EB3C3ED9FEE6480F8EC64809850F0
:101B45002D74002DF58274003CF583E0B40A180568
:101B55003CE53C7002053BB53A0DE53BB53908ED72
:101B65002401FFE43CFE220DBD00010C80C3AE0440
:021B7500AF05BA
:011B7700224B
:101D73008E2C8F2D121B21120E98C003C002C0019E
:101D8300E52D2401FFE4352CFE121B2174002FF9ED
:101D930074003E754C01F54D894ED001D002D0033D
:031DA300020FD755
:0A1800008B2C8A2D892EAD07AC0653
:10180A00121EB98E378F38120FC98F828E83740ACF
:10181A00121678E92538F9EA3537FA900001E41208
:10182A001678120FC9121EB98E378F38AF05AE045B
:10183A00121B218E358F36121EB3C3EF9536F53241
:10184A00EE9535F531E4F52FF530C3E5309538E5F9
:10185A00376480F8E52F6480985072121EB3EF2423
:10186A0001F534E43EF533E4FFFED3EF9532E5317A
:10187A006480F8EE648098502374FF2534F974FF6D
:10188A00120F58121620FD74002534F97400120F35
:10189A0058ED1216660FBF00010E80CE120FC985D1
:1018AA003082852F83121639FF74002536F582742B
:1018BA00003535F583E5822530F582E583352FF548
:0D18CA0083EFF00530E5307081052F0154EB
:0118D70022EE
:1003DB0074FFF52AF52B75FFDE75FFAD121E96D255
:1003EB0099121F31D2AFFB7A0C79FCA1A4120780B2
:1003FB00121EB374002FF58274003EAF82F5718F1D
:10040B0072FAA9077D507C00121999AA71A9727B07
:10041B0001121EB98E258F26E526452560CFE4F502
:10042B0021F522C3E5229526E5256480F8E52164B4
:10043B0080985012120E51E0FF640A6004EFB40D65
:10044B0005120E51E4F0120FD0E0FF121F7D8F2921
:10045B00E526640145256002C1BE120FD0F0E529E7
:10046B00644370677BFF7A0D7918121E73E4F523D2
:10047B00F524F521F522121EB3C3E5229FEE64800D
:10048B00F8E521648098503E120EB8640D602D1271
:10049B000EB8B40A200524E52470020523120EDCE5
:1004AB00121E73AF24AE23121B787BFF7A0D791CBF
:1004BB00121E738007120EB8FF121DFF0522E522D4
:1004CB0070B4052180B0120EDCA1A4E52964546040
:1004DB0002A1A97BFF7A0D791F121E73121EB31294
:1004EB001B787BFF7A0C798F121E73E56625E0FF74
:1004FB00E565120758E56825E0FFE5671207581216
:10050B000DF2121B78120EDC121E737BFF7A0D7923
:10051B0022121E73856521856622C3E5229568E547
:10052B00219567502FAF22AE21121FBD8E238F2432
:10053B001207787F23121DFF7E00AF24121B787FDA
:10054B004D121DFFE523FF3395E0FE12076770CABE
:10055B00052180C6120EDC121E737BFF7A0D7928E3
:10056B00121E73E4F521F522C3E522956D7480F814
:10057B006521985021120778120780AF22121F4471
:10058B00121E737F3D121DFFAF22121FD012076781
:10059B0070D6052180D2120EDC121E7361F8E5298C
:1005AB00B45221E4FF121CAA7B017A0079001208D5
:1005BB000012132E12000EE56E700261F87FF3121B
:1005CB001F9D61F8E529B44E077F01121CAA61F843
:1005DB00E529644C703EF521F522C3E522120FA5E7
:1005EB00400261F8AF22AE21121B787BFF7A0C79A7
:1005FB009A121E73E52225E02457F8E6FE08E6AAB8
:10060B0006F97BFF121E7312078A0522E52270CAB8
:10061B00052180C6AF29121F8E50347F01121CAAF0
:10062B00E52925E024F7F8E6FE08E6AA06754CFF57
:10063B008A4DF54E7B017A007900120FD7121EB34B
:10064B0074002FF58274003EF583740AF061F8E5AF
:10065B00296455705EF527F5281217EF121F7D8F51
:10066B0029121F8E5013AF29121E26EFAE27AF286B
:10067B00120F44F528EA3EF527E529B441118527E9
:10068B0063852864852765852866E4F527F528E5C5
:10069B0029B4540CAF28AE27121F1DE4F527F528FB
:1006AB00E529B452B485636785646812078A120022
:1006BB000E61F8E52964406002E14AF521752201DB
:1006CB00D3E5229401120FA74027120E51E0FF64CD
:1006DB00206003EF701B120E51E4F0E5722401FF52
:1006EB00E43571FAA9077B01121C188E2A8F2B8017
:1006FB000E0522E52270020521C3120FA540C1127F
:10070B000FD0E4F0C3E52A64809480500261F8E5D1
:10071B0026B5220EE525B52109AF2BAE2A121D7386
:10072B0061F8E5722522FFE5713521CF2401CF3425
:10073B0000FAA9077B01AF2BAE2A12180061F81241
:0D074B000F65740AF0120F65A3E4F061F869
:1007580033FE121B787BFF7A0C798F121E732212DC
:100768001B787BFF7A0D7925121E730522E522225C
:10077800AF22AE21121B78227BFF7A0D7916121E4A
:0C07880073227BFF7A0D792B121E732266
:10100000EFC394405009EF75F003A4901017737567
:10101000F003A49010D7738D80228D81228D8222BF
:101020008D83228D84228D85228D86228D87228D2F
:1010300088228D89228D8A228D8B228D8C228D8D06
:10104000228D8E228D8F228D90228D91228D922243
:101050008D93228D94228D95228D96228D97228DAF
:1010600098228D99228D9A228D9B228D9C228D9D76
:10107000228D9E228D9F228DA0228DA1228DA222C3
:101080008DA3228DA4228DA5228DA6228DA7228D2F
:10109000A8228DA9228DAA228DAB228DAC228DADE6
:1010A000228DAE228DAF228DB0228DB1228DB22243
:1010B0008DB3228DB4228DB5228DB6228DB7228DAF
:1010C000B8228DB9228DBA228DBB228DBC228DBD56
:1010D000228DBE228DBF228DC0228DC1228DC222C3
:0310E0008DC3229B
:1010E3008DC4228DC5228DC6228DC7228DC8228D27
:1010F300C9228DCA228DCB228DCC228DCD228DCEBD
:10110300228DCF228DD0228DD1228DD2228DD3223A
:101113008DD4228DD5228DD6228DD7228DD8228DA6
:10112300D9228DDA228DDB228DDC228DDD228DDE2C
:10113300228DDF228DE0228DE1228DE2228DE322BA
:101143008DE4228DE5228DE6228DE7228DE8228D26
:10115300E9228DEA228DEB228DEC228DED228DEE9C
:10116300228DEF228DF0228DF1228DF2228DF3223A
:101173008DF4228DF5228DF6228DF7228DF8228DA6
:10118300F9228DFA228DFB228DFC228DFD228DFE0C
:04119300228DFF2288
:10119700EFC394405009EF75F003A49011AE737537
:1011A700F003A490126E73AF8022AF8122AF822228
:1011B700AF8322AF8422AF8522AF8622AF8722AFCB
:1011C7008822AF8922AF8A22AF8B22AF8C22AF8DC4
:1011D70022AF8E22AF8F22AF9022AF9122AF922201
:1011E700AF9322AF9422AF9522AF9622AF9722AF4B
:1011F7009822AF9922AF9A22AF9B22AF9C22AF9D34
:1012070022AF9E22AF9F22AFA022AFA122AFA22280
:10121700AFA322AFA422AFA522AFA622AFA722AFCA
:10122700A822AFA922AFAA22AFAB22AFAC22AFADA3
:1012370022AFAE22AFAF22AFB022AFB122AFB22200
:10124700AFB322AFB422AFB522AFB622AFB722AF4A
:10125700B822AFB922AFBA22AFBB22AFBC22AFBD13
:1012670022AFBE22AFBF22AFC022AFC122AFC22280
:03127700AFC322E0
:10127A00AFC422AFC522AFC622AFC722AFC822AFC2
:10128A00C922AFCA22AFCB22AFCC22AFCD22AFCE7A
:10129A0022AFCF22AFD022AFD122AFD222AFD322F8
:1012AA00AFD422AFD522AFD622AFD722AFD822AF42
:1012BA00D922AFDA22AFDB22AFDC22AFDD22AFDEEA
:1012CA0022AFDF22AFE022AFE122AFE222AFE32278
:1012DA00AFE422AFE522AFE622AFE722AFE822AFC2
:1012EA00E922AFEA22AFEB22AFEC22AFED22AFEE5A
:1012FA0022AFEF22AFF022AFF122AFF222AFF322F8
:10130A00AFF422AFF522AFF622AFF722AFF822AF41
:10131A00F922AFFA22AFFB22AFFC22AFFD22AFFEC9
:04132A0022AFFF22CD
:101A47000203DBE493A3F8E493A34003F68001F2D7
:101A570008DFF48029E493A3F85407240CC8C333A0
:101A6700C4540F4420C8834004F456800146F6DF6F
:101A7700E4800B0102040810204080901F57E47E89
:101A8700019360BCA3FF543F30E509541FFEE49364
:101A9700A360010ECF54C025E060A840B8E493A32B
:101AA700FAE493A3F8E493A3C8C582C8CAC583CA56
:101AB700F0A3C8C582C8CAC583CADFE9DEE780BE0E
:011F69000077
:10162000BB010689828A83E0225002E722BBFE02C8
:09163000E32289828A83E49322FB
:10163900BB010CE58229F582E5833AF583E0225066
:1016490006E92582F8E622BBFE06E92582F8E222B0
:0D165900E58229F582E5833AF583E49322CA
:10166600BB010689828A83F0225002F722BBFE0163
:02167600F3225D
:10167800F8BB010DE58229F582E5833AF583E8F0A8
:10168800225006E92582C8F622BBFE05E92582C854
:02169800F2223C
:10169A00EF8DF0A4A8F0CF8CF0A428CE8DF0A42E64
:0216AA00FE221E
:1016AC00C2D5EC30E709B2D5E4C39DFDE49CFCEE59
:1016BC0030E715B2D5E4C39FFFE49EFE121720C39A
:1016CC00E49DFDE49CFC800312172030D507C3E495
:0616DC009FFFE49EFE22C8
:0C16E200A42582F582E5F03583F5832213
:0C16EE00E493FB740193FA740293F92258
:1016FA00D083D082F8E4937012740193700DA3A37F
:10170A0093F8740193F5828883E473740293686092
:06171A00EFA3A3A380DF92
:101DFF00EFB40A07740D121E0A740A309811A899CD
:101E0F00B8130CC2983098FDA899C298B811F63043
:071E1F0099FDC299F599221B
:1017EF0010000B121FC6BF0D027F0A021DFFAF09AB
:0117FF0022C7
:101E2600EF7E0024D0B40A00401B24F9B40A004017
:101E360011B41000400F24E0B40A004005B41000AD
:071E4600400374FFFEFF22C0
:0F1F8E00EFC394304007EF943A50028001C32212
:101E4D00EFC394414005EF945B4016EFC39461409E
:101E5D0005EF947B400BEFC394304008EF943A505C
:061E6D0003D38001C32233
:101F6A00EFC394094005EF940E4003BF2003D380CA
:031F7A0001C3227E
:101F7D00EFC39461400AEF947B5005EF24E0FF22FC
:011F8D002231
:101999008B458A4689478C488D49E4F54AF54BE5DC
:1019A9004924FFFFE54834FFFEC3E54B9FEE648001
:1019B900F8E54A64809850691217EFAB45AA46A921
:1019C90047854B82854A83EF121678FFBF0A02804A
:1019D90050AB45AA46A947854B82854A83121639D9
:1019E900B4081AE54B454A6008E54B154B700215DA
:1019F9004A7F20121DFF7F08121DFF80A2AB45AA56
:101A090046A947854B82854A83121639FF641160BE
:101A19008EEF64136089054BE54B7083054A021903
:101A2900A8AB45AA46A947854B82854A83E4121685
:021A3900782211
:10172000BC000BBE0029EF8DF084FFADF022E4CCAD
:10173000F875F008EF2FFFEE33FEEC33FCEE9DEC76
:10174000984005FCEE9DFE0FD5F0E9E4CEFD22EDBC
:10175000F8F5F0EE8420D21CFEADF075F008EF2F06
:10176000FFED33FD4007985006D5F0F222C398FDF7
:051770000FD5F0EA2294
:0A1FC6003098FDAF99C2987E00220A
:00000001FF
