:0300000002184D96
:0C184D00787FE4F6D8FD758175021894D0
:10079500464F52206B3D3020544F20342053544552
:1007A50050203220464F52206D3D3120544F203588
:1007B500204946206D3E33205448454E20474F542E
:1007C5004F204520454E444946205052494E54201D
:1007D5006B2C6D204E455854206D20453A204E45D2
:1007E5005854206B00474F535542207620454E44C0
:1007F50020763A205052494E5420312052455455C6
:10080500524E00773A205052494E54204745545491
:1008150049434B2829205041555345203920474FFE
:10082500544F207700444154412039302C2D31203C
:1008350052454144206D2C7620504F4B45206D2C60
:1008450076205052494E54205045454B286D29007D
:100855005052494E5420223F2220494E5055542093
:1008650061205052494E54206100696620313E3264
:10087500207468656E207072696E74203120656C15
:10088500736520696620313C32207468656E20707E
:1008950072696E74203220656E64696620656E64C7
:1008A5006966007072696E7400696E7075740064B3
:1008B500617461007265616400726573746F72655D
:1008C500006966007468656E00656C736500656E29
:1008D50064696600666F7200746F007374657000FA
:1008E5006E65787400676F746F00676F737562006B
:1008F50072657475726E00656E64002C003B00288D
:100905000029002B002D002A002F0025003C003C6B
:100915003D003E003E3D003D003C3E00616E6400F2
:100925006F72006E6F740070617573650067657432
:100935007469636B007065656B00706F6B65000DA6
:100945000A543A000D0A453F40000D0A433F000D89
:100955000A000D0A543F006E4235312076302E32A2
:1009650062312028432920323032352062670A0D52
:10097500002300303A20003A2000733A00743A0010
:100985002C20006E3A000A0D00FF08A88CFF08AE67
:100995008DFF08B48EFF08B98FFF08BE90FF08C60B
:1009A50096FF08C997FF08CE98FF08D399FF08D985
:1009B500A0FF08DDA1FF08E0A2FF08E5A3FF08EA04
:1009C500AAFF08EFABFF08F5ACFF08FCADFF090077
:1009D500BBFF0902BCFF0904B9FF0906BAFF0908F4
:1009E500B4FF090AB5FF090CB6FF090EB7FF0910D8
:1009F500B8FF0912BEFF0914BFFF0917C0FF091987
:100A0500C1FF091CC2FF091EC3FF0921C8FF092533
:100A1500C9FF0928CAFF092CCBFF0932CCFF093AC7
:100A2500CDFF093FCE0000010100010000000100DB
:0D0A350001010000000101000000010000AF
:101E6A000C5A079507EA0808082A0855086F0274E9
:021E7A00000066
:100C88007492C39570FFE49400FE7C007D07021502
:100C980037D3E52F9531E5306480F8E52E648098E8
:100CA80022EF3395E0FEC374919FFFE49EFE90000F
:100CB8000575F007EF12157FEE75F007A42583F58B
:100CC8008322AB2CAA2DA92E853082852F8312145E
:100CD800D6F53522E5732522F582E5723521F583AF
:100CE80022A808A60608A60722C3E5309532E531F2
:100CF8006480F8E52F64809822EF25E0FFEE33FE4C
:100D080074002FF58274003EF58322FFAE66121E32
:100D1800E38E388F390567E5672274002522F5824E
:100D280074003521F583E022A8080808A60608A65D
:100D380007227BFF7A09795422AB48AA49A94AAF0E
:100D48004DEF3395E08F82F5831214D6FF22E6FE2D
:100D580008E6FFA808E6FC08E6FD2274002FF974EF
:100D6800003E22E54525E025E02491F582E434099A
:100D7800F583E49322FFAE66021EE3856866856903
:100D88006722C3E567956BE566956A227403256754
:100D9800F567E43566F566227B007A00793A22C366
:100DA800E53264809480227E00121E430530E530CF
:100DB80022FB7A007C007D0A121537EF2B2235338F
:100DC800FA7B01C3E99FF9EA9EFA22E5732526F525
:100DD80082E5723525F58322AB47AA48A9498F8257
:100DE80075830022AE4FAF507C007D0A021549E59D
:100DF8006B25E0FFE56A22A8080808E6FE08E6FF7A
:100E0800E50822AF4AEF3395E0FE228E2C8F2DEFB6
:100E1800F53E229406E5216480948022A8080808FB
:100E2800A90022E53B2401FFE4353AFE22AB2CAAB7
:0B0E38002DA92E228573828572832273
:03000B00021C8C48
:101C8C00C0E0C0D0E56D456C6008E56D156D700267
:101C9C00156C056FE56F7002056ED394FFE56E94BD
:0E1CAC007F4006756E00756F00D0D0D0E0321C
:101DD30053877F759850538EBF538EFE53890F439D
:0D1DE3008920758BFD758DFDC2ABD28E225F
:101E5700538E7F5389F0758A66758CFCC28DD28C40
:031E6700D2A922DB
:061B00008B488A49894A66
:101B0600E4F54BF54CF54D754E011214BDB42D059B
:101B1600754EFF054D120D41121EC25018120D4191
:101B2600121D63EFAE4BAF4C120DB9F54CEA3EF504
:101B36004B054D80E0AF4EEF3395E0FEAC4BAD4C20
:031B46000215374E
:061DF0007B017A0079007E
:101DF600E4FFFE1214BD600E740129F9E43AFA0FED
:061E0600BF00010E80ED9B
:011E0C0022B3
:061D13008B478A48894954
:101D1900E4FFAB4AAA4BA94C8F827583001214D6F3
:101D2900FE6009120DE01215150F80E6120DE0EEA6
:031D39000215157B
:0619AF008B468A478948BF
:1019B500121DF68F4DAB49AA4AA94B121DF6E54DEE
:1019C5006F60037F0122E4F54CE54CC3954D502330
:1019D500AB49AA4AA94B1219FBC007AB46AA47A9AE
:1019E500481219FBAE07D007EE6F60037F01220591
:0519F5004C80D67F00CC
:0F19FA0022854C827583001214D6FF121EA12283
:101DB0008B578A588959AB57AA58A9591214BDFF95
:101DC0006010121D3C74012559F559E43558F55839
:031DD00080E4228A
:041A60008E4F8F50C6
:101A6400E4F556C3E54F648094805010C3E4955068
:101A7400F550E4954FF54F7F2D121D3CE4FB120DFC
:101A8400ECED2430FFC374049B2451F8A607120D17
:101A9400EC8E4F8F50E550454F60040BBB05DFAF14
:101AA400037B00C374559FF974009400FA021DB0BF
:0E1ED1008F4B7F65121D3CAF4B7E00021A60E6
:061C1A008B428A4389445D
:101C2000E4F545E54525E025E0248EF582E4340918
:101C3000F58312158B8B498A4A894BAB42AA43A97B
:101C4000441219AFEF7005120D6BFF22120D6B6479
:091C5000CE6004054580CC7FFF45
:011C59002268
:041EDF00AF67AE66D5
:091EE300120D01E0FEA3E0FF2254
:091EF600120D01ECF0A3EDF02245
:101E4300AD07AC06AF67AE66121EF60567E56770B1
:041E530002056622FC
:071EB200AC06AD07E52CFFB3
:091EB900120CA9ECF0A3EDF022DB
:091EFF00120CA9E0FEA3E0FF2291
:061BD5008B428A438944A3
:101BDB00E4F545AD45ED3395E0FCC3ED95707480B0
:101BEB00F86C985027C374919DFFE49C120C9112D2
:101BFB000D63754901F54A894BAB42AA43A94412BF
:0E1C0B0019AFEF7003AF4522054580C77FFF7C
:011C190022A8
:101B49008C458D468B428A438944121DF6D3EF9406
:101B590004EE6480948040057FE0121ED1749112D6
:101B69000C8A120D63FA7B0185424A85434B8544F1
:101B79004C121D13AD46AC45AF70121EB90570C3AA
:061B8900E5709401FF224B
:100FEA00EF3395E0FEC374919FFFE49E120C9112B9
:060FFA000D63FA7B0122E9
:041AB4008E4B8F4C7A
:101AB800121EDF8E4D8F4EE54E654C7004E54D6568
:101AC8004B602C7BFF7A097944121DB0AF4EAE4DA6
:101AD800121A607BFF7A09791E121DB0AF4CAE4B0B
:101AE800121A607F40121D3CAF67AE66121A60057D
:071AF80067E5677002056657
:011AFF0022C4
:06132E00E50824FAF508B1
:10133400F8E4F608F6E5082405F87601121EDF1233
:101344000D30120E2409E764B519477015E5082419
:1013540005F876FF0567E56770020566120D7D12D4
:101364000D30120E2409E7FFE5082404F8EFF6FF18
:101374000567E56770020566EF12159713A58213DA
:10138400B583139CB913C2C813D1C913E6CA144850
:10139400CC13F9CD0000146F1218D9A808A6066161
:1013A400F4121EDF120CE90567E567700205668119
:1013B4007F120E24E7FF121EFF120CE9817F121424
:1013C40097E6FC08E6FDEE5CFEEF5D800D121497D7
:1013D400E6FC08E6FDEE4CFEEF4DA808A60608F66E
:1013E40081661214B51218D9EFF4FFEEF4A808F6CA
:1013F40008A60781661214B51218D9120CE9120D49
:101404005BB4000DECB40F09120DF733A808F68095
:1014140016C3EC6480948C4013A90809E72480FF68
:10142400121197A808760008A6078016A808E6FEF9
:1014340008E62575F582E5743EF583E0A808760094
:1014440008F6801E7FB97E00121AB4121EDFEF6404
:10145400BA4E60071218D98E6E8F6FA808A66E0850
:10146400A66F7FBA7E00121AB480107BFF7A0979C6
:1014740049121DB0AF67AE66121A60E5082405F87C
:0C148400E6FF3395E0FE120D5B121537F9
:10149000E5082406F508227FB97E00121AB4121856
:1014A000D9A808A60608A6077FBB7E00121AB412A8
:0D14B00018D9A808227FB97E00121AB422B4
:0616EA00E50824FAF508F2
:1016F00012132E120D30E194E5082404F8E6FE08DA
:10170000E6FF64B64E600EEF64B74E6008EF64B853
:101710004E6002E1A30567E56770020566EE70742E
:10172000EF2449602214604424027068A808080865
:10173000C000E6FC08E6FDC004C00512132ED0056B
:10174000D004121537801C12132E120CE9A90809B7
:10175000E7194770028023A8080808C000120D5638
:10176000121549D000A60608A607802812132E12CB
:101770000CE9A90809E7194770077FF0121ED1800C
:1017800013A8080808C000120D56121549D000A66B
:101790000408A605121EDFE5082404F8A60608A61C
:0317A00007C1F886
:0817A300120DFF2406F50822D7
:0618D900E50824FCF508FF
:1018DF00121EDF120CE91216EA120D308056A808FC
:1018EF00E6FE08E6FF64B44E6006EF64B54E704C3A
:1018FF000567E56770020566EE7039EF244B6014DB
:10190F000470311216EAA808080808EF26F618EE38
:10191F0036F68020A8080808C000E6FE08E6FFC0DB
:10192F0006C0071216EAC3D0E09FFFD0E09ED0009A
:0C193F00F608A607121EDF120CE980A2B9
:08194B00120DFF2404F508222F
:101953001218D98E488F49121EDFEF2442F54A052B
:1019630067E567700205661218D9D3E5499FEE64EF
:1019730080F8E548648098400C120E0B742A2FF50A
:1019830082740A8020E549B50711E548B5060C12B3
:101993000E0B74322FF582740A800A120E0B743AFE
:0B19A3002FF582740A3EF583E493FFE9
:0119AE002216
:101B8F00EF6005E4900000F0121DF07C007D021262
:101B9F001549EF2403F569E43EF568AD69FCC3EC24
:101BAF00648094825013ED25E0FFEC120D06E4F0F3
:101BBF00A3F00DBD00010C80E5120D83E4F56AF56D
:051BCF006BF571F570DB
:011BD40022EE
:101E0D00E57125E0240AF8A60608A6070571E57117
:0B1E1D00D3940A40057FF1121ED12271
:101E28001571E571C3940050057FF2121ED1E5715A
:0B1E380025E0240AF8E6FE08E6FF2281
:101CBA00EF64824E70080567E56770020566EF6497
:101CCA00844E70190567E56770020566121EDFEF1C
:0E1CDA004E600A0567E56770F3056680EF222D
:100E4300E4F53AF53B120D83120D8A4002E10012DC
:100E53001EDF8E2C8F2DE52D6496452C700D120F01
:100E6300E2E4FFFE121E0D053AC1F6E52D64984536
:100E73002C7008121E28120FE2C1F6E52D64994565
:100E83002C704E856630856731121E288E2E8F2F6B
:100E9300121E28AB07AA06E52F452E601DEB240181
:100EA300FFE43AFEE52F2402FDE4352EFC121EF684
:100EB300E52F2401FFE4352E8006EB2401FFE43AFD
:100EC300FEE5312401FDE43530FC121EF6153A80AF
:100ED30022E52D64A3452C70080567E567700205BC
:100EE30066E52D64A0452C7003120D94AF2DAE2C36
:100EF300121CBA0567E56770020566C14BE53A60E7
:100F0300057FB3121ED1120D83120D8A4002E1D860
:100F1300121EDF8E2C8F2DE52D64A0452C7015AF8E
:100F230067AE66121E0D120D947FC27E00121AB4B4
:100F3300053BE1CEE52D64A3452C707085663485B1
:100F43006735121E288E328F33E5332402FFE435D2
:100F530032FE121EE38E36753700E5352402FFE4B8
:100F63003534FE121EE38E38753900E53765397066
:100F730004E536653860057FB4121ED1AC36E5371B
:100F830044A0FDAF33AE32121EF6AC38E53944A3AC
:100F9300FDAF35AE34121EF6E5332401FFE43532DE
:100FA300FEAD35AC34121EF6153B801FE52D64965D
:100FB300452C6008E52D6498452C70080567E567A6
:100FC30070020566AF2DAE2C121CBA0567E567707B
:0E0FD300020566E10CE53B60057FB2121ED1FF
:090FE10022AF67AE66121E0D225C
:060A42008B2C8A2D892E89
:100A4800121DF68E318F32120D83E4F52FF5301218
:100A58000CF140028154120CCAFF121E7D50028113
:100A68004AE535642270267F84FE120DB1700205B6
:100A78002F120CF15012120CCA6422600BAF3512FF
:100A88000DAF70ED052F80E9E4FFFE812BAF351225
:100A98001D8A400261F0E4F533F536F537F538F58F
:100AA80039120CF1506A120CCAFF121D8A4006E571
:100AB80035643A705BAF35121EC240020536E53325
:100AC800D394014029AF35121D638F34E534B4FF48
:100AD800020537E539C4F8540FC868FFE538C4542F
:100AE800F048FE7C00EF2534F539EC3EF538743AD1
:100AF8002533F8A6350533E533D394074008E4F5E4
:100B0800417FE0121ED10530E5307002052F41A962
:100B1800743A2533F8E4F6E53670197F82FE121E22
:100B280043120DA0121B00121E43E530153070024F
:100B3800152F814AE5377025E53AB43020AF3B12CE
:100B48001EA1BF58187F827E00121E43AF39AE38EF
:100B5800121E43E53015307002152F814A120C73AE
:100B68008F34E534F460217E00121E43E53464A01E
:100B78006012E53464A3600CE53464966006E534DD
:100B88006498705AE4FF805274392533F8E6643A61
:100B98007027F6FB7A00793A121BD58F34E534B406
:100BA800FF0C120DA0AD67AC66121B498030AD6713
:100BB800AC66AF34121EB98025120DA0121BD58F5A
:100BC80034E534B4FF0B120DA0E4FDFC121B498F71
:100BD80034E534FEE42483FFE43EFE121E43E53090
:100BE8001530705E152F805A85353AAB2CE52E25C9
:100BF80030F9E52D352FFA9000011214D6F53BE4B3
:100C0800F53C120C7D600C120C73120DAF7033059D
:100C18002F802FE4F53B120C7D600D120DA0121CE5
:100C28001A7E00121E43801A7BFF7A09794F121D23
:100C3800B0AF35121D3C7F40121D3CAF30AE2F12B5
:100C48001A600530E5307002052F415785666A85C0
:100C5800676B120C88AC06AD07120DF733FED3EFA5
:0A0C68009DEE9C40057FE1121ED1B5
:100C7200227B007A00793A121C1A22FB7A00793A16
:060C8200121C1AEFF4221F
:101CE800754801121EDFEF64B54E700B7548FF058D
:101CF80067E567700205667F827E00121AB4121EBD
:0B1D0800DFAD48ED3395E0FC0215371D
:10000E00120D83C298120D8A400261D6E599641BC7
:10001E00700261D6121EDF120E13E53E1215970006
:10002E00648301F18C02648D02B48E02E68F03406C
:10003E009001829601B39801C0990076A00122A387
:10004E0001CAAA01CAAB01E8AC03D6AD0350CB037B
:10005E0069CE000003AA0567E567700205667FC2D8
:10006E001203D7121EB2809B0567E5677002056604
:10007E00120D137002056685663AF53B2402120DC9
:10008E00981218D98E2E8F2FE52CFFAD2FAC2E1275
:10009E001EB97FA11203D78E308F317532007533A2
:1000AE0001121EDFEF64A24E700F0567E567700246
:1000BE0005661218D98E328F33E5392401FFE435E7
:1000CE0038FEAD67AC66121EF6E5392402FFE43544
:1000DE0038FEAD3BAC3A121EF6AD33AC32AF3BAE92
:1000EE003A121EF6120E2BAD31AC30121EF6120D58
:1000FE00A74005120C99500F120DA740020111C313
:10010E00120C9A40020111E5392403F567E43538E3
:10011E00F56601110567E56770020566120D13702D
:10012E00020566120D7D8E3A8F3B121EE38E328FC4
:10013E0033120E2B121EE38E308F31E52CFFAD07DE
:10014E00121EFFE5332FF52FE5323EF52EAF05AD2E
:10015E002FFC121EB9120DA74005120C99500B124E
:10016E000DA75039C3120C9A50330567E56770021C
:10017E00056601110567E56770020566120D1370BD
:10018E00020566121953EF3395E0F53C8F3D7F97CC
:10019E007E00121AB4E53D453C60020111853866B9
:1001AE0085396701110567E56770020566120D7DD9
:1001BE00802B0567E567700205660111E53EB4AB5D
:1001CE000CE5672402FFE43566FE121E0D0567E599
:1001DE0067700205661218D98003121E288E668F6C
:1001EE006701110567E56770020566121EDFEF6491
:1001FE00844E70290567E56770020566121EDFEFF3
:10020E004E6010121EDF121D3C0567E56770ED058E
:10021E006680E90567E567700A056680061218D9DB
:10022E00121A60121EDF8E2C8F2DE52D64BC452C0C
:10023E00700A0567E567700205660111E52D64BB5E
:10024E00452C6008120D3A121DB001110567E567C5
:10025E007099056680950567E567700205667B00F7
:10026E007A0079407D087C001217AB121EDF120E49
:10027E0013E53EB4830E7B007A007940121B001208
:10028E001EB280057FB0121ED10567E567700205AC
:10029E0066120D7DEF64BB4E600201110567E567C6
:1002AE0070BC056680B80567E567700205668566F1
:1002BE0036F537856634F535121CE80567E5677047
:1002CE00020566120D7DEF64BB4E600201110567DB
:1002DE00E56770E4056680E00567E5677002056610
:1002EE00121EDF120E130567E56770020566E53E06
:1002FE00B4832585663885673985346685356712FA
:10030E001CE8121EB2E5672402F535E43566F534B5
:10031E0085386685396780057FB1121ED1121EDFC2
:10032E00EF64BB4E600201110567E56770B20566AA
:10033E0080AE0567E567700205668536348537350C
:10034E0001110567E567700205661218D98E6C8F6C
:10035E006DE56D456C7002011180F60567E56770FD
:10036E000205661218D98E388F397FBB7E00121A9D
:10037E00B41218D98F3FC3E5386480948C400CE5D5
:10038E00392480FFAD3F1210000111E5752539F5B6
:10039E0082E5743538F583E53FF001117BFF7A096C
:1003AE007957121DB0AF3E7E00121A607F40121DAB
:1003BE003CAF67AE66121A60120D3A121DB0056799
:0803CE00E567700205660111EC
:0A03D600227E00121AB41218D92278
:041A09008E398F3A49
:101A0D00E4F53BF53CE53A45397003FEFF22E4FD74
:101A1D00FC121DF0C3ED9FEE6480F8EC64809850CD
:101A2D002D74002DF58274003CF583E0B40A180581
:101A3D003CE53C7002053BB53A0DE53BB53908ED8B
:101A4D002401FFE43CFE220DBD00010C80C3AE0459
:021A5D00AF05D3
:011A5F002264
:101C5A008E2C8F2D121A09120D63FA7B01C003C054
:101C6A0002C001E52D2401FFE4352CFE121A0912E7
:101C7A000D63754A01F54B894CD001D002D003029D
:021C8A001D1328
:0A1612008B2C8A2D892EAD07AC0643
:10161C00121DF68E378F38120E358F828E83740A18
:10162C00121515E92538F9EA3537FA900001E4125C
:10163C001515120E35121DF68E378F38AF05AE0408
:10164C00121A098E358F36121DF0C3EF9536F5320E
:10165C00EE9535F531E4F52FF530C3E5309538E5E9
:10166C00376480F8E52F6480985072121DF0EF24D7
:10167C0001F534E43EF533E4FFFED3EF9532E5316A
:10168C006480F8EE648098502374FF2534F974FF5D
:10169C00120DC61214BDFD74002534F97400120D20
:1016AC00C6ED1215030FBF00010E80CE120E35854C
:1016BC003082852F831214D6FF74002536F5827480
:1016CC00003535F583E5822530F582E583352FF538
:0D16DC0083EFF00530E5307081052FC16609
:0116E90022DE
:1003E00074FFF52AF52B75FFDE75FFAD121DD3D214
:1003F00099121E57D2AFFB7A09795CA1A512078129
:10040000121DF074002FF58274003EAF82F5728FDA
:1004100073FAA9077D507C001217ABAA72A9737BEF
:1004200001121DF68E258F26E526452560CFE4F5C1
:1004300021F522C3E5229526E5256480F8E52164AF
:1004400080985012120CDCE0FF640A6004EFB40DD7
:1004500005120CDCE4F0120E3CE0FF121EA18F2905
:10046000E526640145256002C1BF120E3CF0E52976
:10047000644370677BFF7A097978121DB0E4F52335
:10048000F524F521F522121DF0C3E5229FEE6480CC
:10049000F8E521648098503E120D22640D602D1203
:1004A0000D22B40A200524E52470020523120D3A1A
:1004B000121DB0AF24AE23121A607BFF7A09797C3B
:1004C000121DB08007120D22FF121D3C0522E522ED
:1004D00070B4052180B0120D3AA1A5E529645460DD
:1004E00002A1AA7BFF7A09797F121DB0121DF012BA
:1004F0001A607BFF7A09790E121DB0E56925E0FFCD
:10050000E568120759120DF7120759120C88121AD2
:1005100060120D3A121DB07BFF7A097982121DB06C
:10052000856821856922C3E522956BE521956A508E
:100530002FAF22AE21121EE38E238F241207797F64
:1005400023121D3C7E00AF24121A607F2F121D3C27
:10055000E523FF3395E0FE12076870CA052180C6C7
:10056000120D3A121DB07BFF7A097988121DB0E492
:10057000F521F522C3E52295707480F86521985025
:1005800021120779120781AF22120FEA121DB07FE4
:100590003D121D3CAF22121EFF12076870D60521C6
:1005A00080D2120D3A121DB061FDE529B45221E44A
:1005B000FF121B8F7B017A007900120A42120E4350
:1005C00012000EE571700261FD7FF3121ED161FD14
:1005D000E529B44E077F01121B8F61FDE529644CAC
:1005E000703EF521F522C3E522120E1B400261FD8B
:1005F000AF22AE21121A607BFF7A097917121DB063
:10060000E52225E0245AF8E6FE08E6AA06F97BFF73
:10061000121DB012078B0522E52270CA052180C683
:10062000AF29121EC250347F01121B8FE52925E02D
:1006300024FAF8E6FE08E6AA06754AFF8A4BF54C4E
:100640007B017A007900121D13121DF074002FF542
:100650008274003EF583740AF061FDE529645570EB
:100660005EF527F528121E90121EA18F29121EC2B8
:100670005013AF29121D63EFAE27AF28120DB9F545
:1006800028EA3EF527E529B44111852766852867C4
:10069000852768852869E4F527F528E529B4540CF1
:1006A000AF28AE27121E43E4F527F528E529B452FA
:1006B000B485666A85676B12078B12000E61FDE5D3
:1006C0002964406002E14BF521752201D3E52294B3
:1006D00001120E1D4027120CDCE0FF64206003EFC6
:1006E000701B120CDCE4F0E5732401FFE43572FAB0
:1006F000A9077B01121B008E2A8F2B800E0522E595
:100700002270020521C3120E1B40C1120E3CE4F000
:10071000C3E52A64809480500261FDE526B5220E6F
:10072000E525B52109AF2BAE2A121C5A61FDE573F0
:100730002522FFE5723521CF2401CF3400FAA90725
:100740007B01AF2BAE2A12161261FD120DD3740A73
:09075000F0120DD3A3E4F061FDE9
:1007590033FE121A607BFF7A09790E121DB022123C
:100769001A607BFF7A097985121DB00522E52222DC
:10077900AF22AE21121A60227BFF7A097976121D07
:0C078900B0227BFF7A09798B121DB02290
:10100000EFC394405009EF75F003A4901017737567
:10101000F003A49010D7738D80228D81228D8222BF
:101020008D83228D84228D85228D86228D87228D2F
:1010300088228D89228D8A228D8B228D8C228D8D06
:10104000228D8E228D8F228D90228D91228D922243
:101050008D93228D94228D95228D96228D97228DAF
:1010600098228D99228D9A228D9B228D9C228D9D76
:10107000228D9E228D9F228DA0228DA1228DA222C3
:101080008DA3228DA4228DA5228DA6228DA7228D2F
:10109000A8228DA9228DAA228DAB228DAC228DADE6
:1010A000228DAE228DAF228DB0228DB1228DB22243
:1010B0008DB3228DB4228DB5228DB6228DB7228DAF
:1010C000B8228DB9228DBA228DBB228DBC228DBD56
:1010D000228DBE228DBF228DC0228DC1228DC222C3
:0310E0008DC3229B
:1010E3008DC4228DC5228DC6228DC7228DC8228D27
:1010F300C9228DCA228DCB228DCC228DCD228DCEBD
:10110300228DCF228DD0228DD1228DD2228DD3223A
:101113008DD4228DD5228DD6228DD7228DD8228DA6
:10112300D9228DDA228DDB228DDC228DDD228DDE2C
:10113300228DDF228DE0228DE1228DE2228DE322BA
:101143008DE4228DE5228DE6228DE7228DE8228D26
:10115300E9228DEA228DEB228DEC228DED228DEE9C
:10116300228DEF228DF0228DF1228DF2228DF3223A
:101173008DF4228DF5228DF6228DF7228DF8228DA6
:10118300F9228DFA228DFB228DFC228DFD228DFE0C
:04119300228DFF2288
:10119700EFC394405009EF75F003A49011AE737537
:1011A700F003A490126E73AF8022AF8122AF822228
:1011B700AF8322AF8422AF8522AF8622AF8722AFCB
:1011C7008822AF8922AF8A22AF8B22AF8C22AF8DC4
:1011D70022AF8E22AF8F22AF9022AF9122AF922201
:1011E700AF9322AF9422AF9522AF9622AF9722AF4B
:1011F7009822AF9922AF9A22AF9B22AF9C22AF9D34
:1012070022AF9E22AF9F22AFA022AFA122AFA22280
:10121700AFA322AFA422AFA522AFA622AFA722AFCA
:10122700A822AFA922AFAA22AFAB22AFAC22AFADA3
:1012370022AFAE22AFAF22AFB022AFB122AFB22200
:10124700AFB322AFB422AFB522AFB622AFB722AF4A
:10125700B822AFB922AFBA22AFBB22AFBC22AFBD13
:1012670022AFBE22AFBF22AFC022AFC122AFC22280
:03127700AFC322E0
:10127A00AFC422AFC522AFC622AFC722AFC822AFC2
:10128A00C922AFCA22AFCB22AFCC22AFCD22AFCE7A
:10129A0022AFCF22AFD022AFD122AFD222AFD322F8
:1012AA00AFD422AFD522AFD622AFD722AFD822AF42
:1012BA00D922AFDA22AFDB22AFDC22AFDD22AFDEEA
:1012CA0022AFDF22AFE022AFE122AFE222AFE32278
:1012DA00AFE422AFE522AFE622AFE722AFE822AFC2
:1012EA00E922AFEA22AFEB22AFEC22AFED22AFEE5A
:1012FA0022AFEF22AFF022AFF122AFF222AFF322F8
:10130A00AFF422AFF522AFF622AFF722AFF822AF41
:10131A00F922AFFA22AFFB22AFFC22AFFD22AFFEC9
:04132A0022AFFF22CD
:101859000203E0E493A3F8E493A34003F68001F2C2
:1018690008DFF48029E493A3F85407240CC8C33390
:10187900C4540F4420C8834004F456800146F6DF5F
:10188900E4800B0102040810204080901E6AE47E67
:10189900019360BCA3FF543F30E509541FFEE49354
:1018A900A360010ECF54C025E060A840B8E493A31B
:1018B900FAE493A3F8E493A3C8C582C8CAC583CA46
:1018C900F0A3C8C582C8CAC583CADFE9DEE780BEFE
:011E7C000065
:1014BD00BB010689828A83E0225002E722BBFE022D
:0914CD00E32289828A83E4932260
:1014D600BB010CE58229F582E5833AF583E02250CB
:1014E60006E92582F8E622BBFE06E92582F8E22215
:0D14F600E58229F582E5833AF583E493222F
:10150300BB010689828A83F0225002F722BBFE01C7
:02151300F322C1
:10151500F8BB010DE58229F582E5833AF583E8F00C
:10152500225006E92582C8F622BBFE05E92582C8B8
:02153500F222A0
:10153700EF8DF0A4A8F0CF8CF0A428CE8DF0A42EC8
:02154700FE2282
:10154900C2D5EC30E709B2D5E4C39DFDE49CFCEEBD
:1015590030E715B2D5E4C39FFFE49EFE1215BDC363
:10156900E49DFDE49CFC80031215BD30D507C3E45E
:061579009FFFE49EFE222C
:0C157F00A42582F582E5F03583F5832277
:0C158B00E493FB740193FA740293F922BC
:10159700D083D082F8E4937012740193700DA3A3E3
:1015A70093F8740193F5828883E4737402936860F7
:0615B700EFA3A3A380DFF7
:101D3C00EFB40A07740D121D47740A309811A89954
:101D4C00B8130CC2983098FDA899C298B811F63007
:071D5C0099FDC299F59922DF
:101E900010000B121EECBF0D027F0A021D3CAF09A1
:011EA000221F
:101D6300EF7E0024D0B40A00401B24F9B40A0040DB
:101D730011B41000400F24E0B40A004005B4100071
:071D8300400374FFFEFF2284
:0F1EC200EFC394304007EF943A50028001C322DF
:101D8A00EFC394414005EF945B4016EFC394614062
:101D9A0005EF947B400BEFC394304008EF943A5020
:061DAA0003D38001C322F7
:101E7D00EFC394094005EF940E4003BF2003D380B8
:031E8D0001C3226C
:101EA100EFC39461400AEF947B5005EF24E0FF22D9
:011EB100220E
:1017AB008B488A49894A8C4B8D4CE4F54DF54EE5B7
:1017BB004C24FFFFE54B34FFFEC3E54E9FEE6480E8
:1017CB00F8E54D6480985069121E90AB48AA49A960
:1017DB004A854E82854D83EF121515FFBF0A028095
:1017EB0050AB48AA49A94A854E82854D831214D61F
:1017FB00B4081AE54E454D6008E54E154E700215BE
:10180B004D7F20121D3C7F08121D3C80A2AB48AAC5
:10181B0049A94A854E82854D831214D6FF64116007
:10182B008EEF64136089054EE54E7083054D0217EC
:10183B00BAAB48AA49A94A854E82854D83E4121555
:02184B00152264
:1015BD00BC000BBE0029EF8DF084FFADF022E4CC12
:1015CD00F875F008EF2FFFEE33FEEC33FCEE9DECDB
:1015DD00984005FCEE9DFE0FD5F0E9E4CEFD22ED21
:1015ED00F8F5F0EE8420D21CFEADF075F008EF2F6B
:1015FD00FFED33FD4007985006D5F0F222C398FD5C
:05160D000FD5F0EA22F8
:0A1EEC003098FDAF99C2987E0022E5
:00000001FF
